S015000046696E616C5F70726F6A6563742E73726563CF
S11300000C9434000C9451000C9451000C94510045
S11300100C9451000C9451000C9451000C9459030D
S11300200C9451000C9451000C942D010C9451002B
S11300300C9451000C9451000C9451000C945100F8
S11300400C9451000C9451000C9451000C945100E8
S11300500C945100610065006C0073007A0081000B
S113006088008F0096009D0011241FBECFE5D8E0C4
S1130070DEBFCDBF10E0A0E6B0E0E4E8F3E102C0EB
S113008005900D92A439B107D9F726E0A4E9B0E0B0
S113009001C01D92AE3DB207E1F70E943F090C94E6
S11300A0C0090C94000084B38F6384BB089590E06E
S11300B08A30910508F047C0FC01E65DFF4F0C94BF
S11300C0AB0985B3807F85BB089585B3816085BB0B
S11300D085B3817F85BB089585B3826085BB85B375
S11300E0827F85BB089585B3836085BB85B3837F99
S11300F085BB089585B3846085BB85B3847F85BB48
S1130100089585B3856085BB85B3857F85BB0895D8
S113011085B3866085BB85B3867F85BB089585B32B
S1130120876085BB85B3877F85BB089585B3886069
S113013085BB85B3887F85BB089585B3896085BBFE
S113014085B3897F85BB08950F931F93CF93DF9366
S1130150811103C00E9457003BC0082F10E0980192
S1130160ADECBCEC0E94B109EC01D695C795D695CF
S1130170C795D695C7958C2F0E94570085B38F7E5F
S113018085BB83EC99E00197F1F700C0000085B3CB
S1130190806185BBCE01880F991FCC0FDD1FCC0F6A
S11301A0DD1FCC0FDD1FC80FD91F802F8C1B0E94B1
S11301B0570085B38F7D85BB83EC99E00197F1F7F8
S11301C000C0000085B3806285BB01501109C7CF10
S11301D0DF91CF911F910F91089517B883E886B9E5
S11301E00895877097B1907E97B997B1892B87B995
S11301F086B1806486B9349BFECF86B1806186B9AE
S113020084B195B1089586EF82BF83B7896683BFB1
S113021087B3886087BB08958CBF089587B38064D3
S113022087BB84B3806C84BB089598B39F7B98BBD1
S113023095B39F7395BB813041F018F0823049F03B
S1130240089585B3806485BB089588B3806488BBB2
S1130250089585B3806885BB08951F920F920FB6E9
S11302600F9211240F900FBE0F901F90189522E04B
S11302702BB928E12AB926E820BDDC01CB01880F7F
S1130280991FAA1FBB1F880F991FAA1FBB1F9C0180
S1130290AD01220F331F441F551F60E472E48FE049
S11302A090E00E9489092150310930BD29B908958F
S11302B05D9BFECF8CB908955F9BFECF8CB10895F2
S11302C00F931F93CF938C01C0E003C00E94580189
S11302D0CF5FF801EC0FF11D80818111F7CFCF9131
S11302E01F910F910895EF92FF920F931F93CF9355
S11302F08C010E945C01F8018083C0E008C0CF5FDC
S11303007801EC0EF11C0E945C01F7018083F80176
S1130310EC0FF11D8081833291F78DE08083C80159
S1130320CF911F910F91FF90EF900895FC010396D8
S1130330928381832FEF3FEF3483238396838583D6
S11303409087878310820895FC0111861086089592
S1130350CF93DF93EB01488159814F3F2FEF520731
S113036021F4FC01A781B0850DC0DC01139601C006
S1130370DF011296ED91FC91139720813181421790
S11303805307B0F71296ED91FC911397FB83EA8320
S1130390D583C483BD83AC831396DC93CE93129729
S11303A099878887FC0120812F5F2083DF91CF917B
S11303B00895CF93DF93FC01A085B185C281D381D9
S11303C0848195819D838C83C481D581828193812D
S11303D09B838A8311968D919C911297E817F90754
S11303E031F48481958112969C938E931197118692
S11303F010868C9181508C938C91DF91CF910895CC
S11304001BBC8CE78ABD8BE08EBD89B7806189BF38
S1130410089531E1FC013083319722E22083319742
S1130420A3E3A0833197608331977083319710825F
S1130430319760E8608331971082319762E060837E
S1130440319763E06083319764E06083319765E0BE
S11304506083319766E06083319767E0608331970A
S113046068E06083319769E06083319760E160837D
S113047031973083319732E13083319733E13083E0
S1130480319734E13083319735E13083319736E168
S11304903083319737E13083319738E130833197B6
S11304A039E13083319730E23083319731E2308360
S11304B031972083319723E220833197408331970A
S11304C05083319726E22083319727E220833197A6
S11304D028E22083319729E22083319720E3208387
S11304E0319721E32083869708950E940002A0910A
S11304F0D006B091D106CD91CDBFDD91DEBFFF9185
S1130500EF91DF91CF91BF91AF919F918F917F91A7
S11305106F915F914F913F912F911F910F91FF9098
S1130520EF90DF90CF90BF90AF909F908F907F908F
S11305306F905F904F903F902F901F900F900FBE41
S11305400F90089581E008950F920FB6F8940F92DA
S11305501F9211242F923F924F925F926F927F923B
S11305608F929F92AF92BF92CF92DF92EF92FF92BF
S11305700F931F932F933F934F935F936F937F93A7
S11305808F939F93AF93BF93CF93DF93EF93FF9397
S1130590A091D006B091D1060DB60D920EB60D9273
S11305A00E943808A091D006B091D106CD91CDBF5C
S11305B0DD91DEBFFF91EF91DF91CF91BF91AF91BC
S11305C09F918F917F916F915F914F913F912F9167
S11305D01F910F91FF90EF90DF90CF90BF90AF905D
S11305E09F908F907F906F905F904F903F902F904F
S11305F01F900F900FBE0F9008950F920FB6F894AE
S11306000F921F9211242F923F924F925F926F92FA
S11306107F928F929F92AF92BF92CF92DF92EF928E
S1130620FF920F931F932F933F934F935F936F9377
S11306307F938F939F93AF93BF93CF93DF93EF9366
S1130640FF93A091D006B091D1060DB60D920EB6CF
S11306500D920E94F10581110E943808A091D006E4
S1130660B091D106CD91CDBFDD91DEBFFF91EF9169
S1130670DF91CF91BF91AF919F918F917F916F91B6
S11306805F914F913F912F911F910F91FF90EF90A8
S1130690DF90CF90BF90AF909F908F907F906F909E
S11306A05F904F903F902F901F900F900FBE0F9030
S11306B008950E94FD021895CF93DF93EC010E94E8
S11306C0E1058091940090919500892B31F488E99B
S11306D090E090939500809394002097C9F08091C6
S11306E09600909197009E01280F391F2B3D45E0FD
S11306F0340788F48217930788F4C0919400D0914A
S11307009500C80FD91F309397002093960008C016
S1130710C0E0D0E005C0C0E0D0E002C0C0E0D0E05E
S11307200E940B07CE01DF91CF9108950895E091C7
S11307309806F09199068081811107C08FEF9FEF91
S113074090937806809377060895E0919806F09147
S113075099060580F681E02D808191819093780639
S1130760809377060895CF93DF93EC018F89988D5A
S11307700E949603CE010E949603DF91CF910895C3
S11307806F927F928F929F92AF92BF92CF92DF929D
S1130790EF920F931F93CF93DF93CDB7DEB74C0146
S11307A0D50157968D919C915897215031093C0160
S11307B0620E731E6115710589F416C0822F90E0D4
S11307C0FB01E80FF91F3081D501A80FB91F599615
S11307D03C938081882329F02F5F01C020E02830DA
S11307E068F3F50110A203C0D50159961C92B3E039
S11307F0BE1520F40F2EF3E0EF2EF02DF501E68A5E
S1130800C50102960E94A401C5010C960E94A40190
S1130810D5011996BC92AE92189784E090E08E1997
S113082091091D969C938E931C975396BC92AE92FD
S1130830529784E0F501B196DF011D928A95E9F79C
S1130840F50115A2A801B401C3010E940902D50152
S11308508D939C93C114D10419F0F601B182A08246
S1130860DF91CF911F910F91EF90DF90CF90BF90C8
S1130870AF909F908F907F906F900895CF93C0E03A
S113088010C08C2F90E09C01220F331F220F331FC6
S1130890220F331F820F931F8455994F0E94960194
S11308A0CF5FC43070F383EA96E00E9496018AE930
S11308B096E00E9496018DE896E00E94960184E8F5
S11308C096E00E94960183EA96E0909399068093BD
S11308D098068AE996E09093970680939606CF91BE
S11308E00895CF93DF93EC010FB6F8940F928091A3
S11308F082068F5F809382068091D0069091D10604
S1130900892B59F4D093D106C093D00680918206E6
S1130910813099F40E943E0410C080917E068111BA
S11309200CC0E091D006F091D10696898E89891782
S113093020F0D093D106C093D006809179068F5FC2
S1130940809379068E8990917F06981710F480938E
S11309507F0690E0FC01EE0FFF1FEE0FFF1FEE0F6E
S1130960FF1F8E0F9F1FFC01E455F94F0180F28198
S1130970E02DFD83EC83848195819F838E83A48104
S1130980B581CE01029613969C938E93129795830C
S11309908483EE89F0E0CF01880F991F880F991F97
S11309A0880F991FE80FF91FE455F94FFB87EA8771
S11309B080818F5F80830F900FBE80917E06882395
S11309C051F0E091D006F091D10696898E8998175E
S11309D010F40E94A402DF91CF910895CF93DF9386
S11309E01CC00FB6F8940F92E0918906F0918A0624
S11309F0C681D781CE0102960E94D90180918206D8
S1130A00815080938206809183068150809383066F
S1130A100F900FBECE010E94B30380918306811113
S1130A20E0CFDF91CF9108950E94EE048091AC064F
S1130A308230D0F30E94A402F7CF0F931F93CF9379
S1130A40DF93EC0100918006109181068091D0061D
S1130A509091D10602960E94D901C00FD11FE09156
S1130A60D006F091D106D383C283C017D10768F4AE
S1130A706091D0067091D106809196069091970668
S1130A806E5F7F4F0E94A80117C06091D0067091DD
S1130A90D10680919806909199066E5F7F4F0E94CF
S1130AA0A8018091770690917806C817D90720F499
S1130AB0D0937806C0937706DF91CF911F910F9161
S1130AC008952F923F924F925F926F927F928F92EE
S1130AD09F92AF92BF92CF92DF92EF92FF920F93C9
S1130AE01F93CF93DF933C011B015A012901CA01D3
S1130AF00E945C036C01892B71F086E290E00E94F5
S1130B005C03EC01892B19F0D88ECF8A06C0C6018C
S1130B100E94960302C0C0E0D0E0209791F09501B6
S1130B2040E050E0812C912C5E016701E02E8201AF
S1130B30B101C3010E94C003CE010E94710481E08F
S1130B4001C08FEFDF91CF911F910F91FF90EF9034
S1130B50DF90CF90BF90AF909F908F907F906F90D9
S1130B605F904F903F902F900895EF92FF920F93D4
S1130B700F2EF5E7EF2EF6E0FF2EF02D00E020E03B
S1130B8030E045E550E061E670E084E195E00E94E4
S1130B906105813081F4F8948FEF9FEF909378068C
S1130BA08093770681E080937E06109281061092EE
S1130BB080060E947502809160000F91FF90EF9073
S1130BC00895809174068F5F8093740608950FB61C
S1130BD0F8940F9280918006909181060F900FBE39
S1130BE008950F931F93CF93DF938091740681111F
S1130BF001C1C0918006D09181068E010F5F1F4F05
S1130C00109381060093800601151105B9F48091B3
S1130C109806909199062091960630919706309304
S1130C209906209398069093970680939606809150
S1130C307A068F5F80937A060E94970380917706E5
S1130C40909178060817190720F480E0B8C081E075
S1130C5001C080E0E0919806F0919906908191118D
S1130C6007C02FEF3FEF3093780620937706A7C095
S1130C70E0919806F09199060580F681E02D0680B2
S1130C80F781E02D228133810217130728F4309372
S1130C9078062093770693C0A285B3852481358195
S1130CA046815781E9015D834C83268137814481E4
S1130CB05581E9015B834A8311962D913C911297EA
S1130CC0AF014E5F5F4F2417350731F4268137811A
S1130CD012963C932E931197138612869C919150F1
S1130CE09C93A489B589109719F126853785608965
S1130CF07189E9017D836C832089318966857785D3
S1130D00E9017B836A8311966D917C9112979F010F
S1130D10245F3F4F6217730731F42089318912969B
S1130D203C932E931197158A148A9C9191509C930D
S1130D30268990917F06921710F420937F0630E065
S1130D40D901AA0FBB1FAA0FBB1FAA0FBB1F2A0FD3
S1130D503B1FD901A455B94F11960D90BC91A02DFC
S1130D60B583A48314962D913C91159737832683DC
S1130D7014962D913C911597E9015B834A8315964E
S1130D805C934E931497A689B0E09D01220F331F04
S1130D90220F331F220F331FA20FB31FA455B94FC5
S1130DA0B387A2879C919F5F9C932689E091D0068C
S1130DB0F091D1069689291708F049CF4BCFE091DD
S1130DC0D006F091D106268930E0F901EE0FFF1F1D
S1130DD0EE0FFF1FEE0FFF1F2E0F3F1FF901E4550B
S1130DE0F94F9081923008F081E090917B06911147
S1130DF00CC00CC080917C0690917D060196909366
S1130E007D0680937C0680E001C081E0DF91CF9174
S1130E101F910F910895CF93DF930FB6F8940F921B
S1130E2080917406815080937406809174068111B8
S1130E30BFC080918206811196C0BDC0E091920628
S1130E40F09193060680F781E02DA489B589C685C3
S1130E50D785808991899D838C83C089D189868532
S1130E6097859B838A8311962D913C911297CF018C
S1130E700C962817390731F48089918912969C932E
S1130E808E931197158A148A8C9181508C93A28524
S1130E90B385C481D581868197819D838C83C681E6
S1130EA0D781848195819B838A8311968D919C91AE
S1130EB012979F012E5F3F4F8217930731F486816B
S1130EC0978112969C938E931197138612868C9118
S1130ED081508C93868990917F06981710F48093A3
S1130EE07F0690E0DC01AA0FBB1FAA0FBB1FAA0F4D
S1130EF0BB1F8A0F9B1FDC01A455B94F11960D909F
S1130F00BC91A02DB583A48314968D919C911597C3
S1130F10978386831496CD91DC9115973B832A831E
S1130F2015963C932E931497A689B0E0CD01880FB3
S1130F30991F880F991F880F991FA80FB91FA455CF
S1130F40B94FB387A2878C918F5F8C939689A091B8
S1130F50D006B091D10656968C91981730F081E066
S1130F6080937B0602C0E0E0F0E080918D06811161
S1130F7065CFEF2B11F00E949703C0917C06D091AE
S1130F807D06209769F00E94F105882319F081E01D
S1130F9080937B062197B9F710927D0610927C0608
S1130FA080917B06882331F00E94A40281E003C073
S1130FB080E001C080E00F900FBEDF91CF910895D3
S1130FC00F931F93CF93DF938C01EB010E94E105F4
S1130FD04091800650918106F80120813181C90138
S1130FE08C0F9D1F4217530740F48217930768F430
S1130FF04817590760F0C0E00FC08217930748F004
S11310004817590740F0C0E007C0C0E005C0C1E080
S113101003C0C1E001C0C1E0F80191838083CC2307
S113102029F060E0841B950B0E941D050E940B07AC
S1131030811102C00E94A4028C2FDF91CF911F91D5
S11310400F910895CF93DF93EC01892B49F00E940F
S1131050E10560E0CE010E941D050E940B0701C05E
S113106080E0811102C00E94A402DF91CF91089513
S113107080917406882321F081E080937B06089593
S113108010927B0620917F0601C02150822F90E0B0
S1131090FC01EE0FFF1FEE0FFF1FEE0FFF1FE80F07
S11310A0F91FE455F94F3081332379F3AC01440F30
S11310B0551F440F551F440F551F480F591FDF017B
S11310C00180F281E02D0280F381E02D1296FC93E1
S11310D0EE9311974155594FE417F50729F44281CE
S11310E05381FD0152834183FC01EE0FFF1FEE0F7C
S11310F0FF1FEE0FFF1F8E0F9F1FFC01E455F94FDA
S11311000180F281E02D868197819093D1068093AE
S1131110D00620937F060895CF93DF9300D0CDB7F8
S1131120DEB70E94E7059A8389836AE070E0CE0106
S113113001960E94E00780E00E94F1009093D5069A
S11311408093D4068091D4069091D506853591403C
S113115068F08091D4069091D5068115924030F4C0
S11311608091D3068F5F8093D30602C01092D3067A
S11311708091D3068A3029F41092D30681E08093BB
S1131180D2068091D206813081F698B380E2892715
S113119088BB1092D206C9CF8091D906813009F15B
S11311A018F0823061F1F8CF81E00E94150180E0EF
S11311B00E94A4008091D206813071F48091D606F9
S11311C0811104C081E08093D90604C01092D9062D
S11311D01092D6061092D2068AE090E00E9422086D
S11311E0DBCF82E00E9415018AE00E94A40082E025
S11311F08093D9068AE090E00E942208CDCF80E057
S11312000E9415018EE10E94A4001092D9068AE082
S113121090E00E942208C0CFCF93DF93CDB7DEB712
S11312206E970FB6F894DEBF0FBECDBF60E875E2CF
S113123080E090E00E943701CE0101960E94730184
S1131240CE0101960E947301FC018485803319F458
S11312508585823319F08585833361F481E0809339
S1131260D60686E690E00E94600186E290E00E9445
S11312702208E2CF82E790E00E946001DDCF87B3CD
S1131280806287BB88B38F7D88BB82E08093D90658
S11312900E940E010E94ED0083E00E9453000E9410
S11312A0030183EB0E940C010F2EFCEDEF2EF6E000
S11312B0FF2EF02D03E020E030E045E550E060E84B
S11312C070E08CE898E00E9461050F2EFAEDEF2E95
S11312D0F6E0FF2EF02D02E020E030E045E550E09E
S11312E066E870E08CEC98E00E9461050F2EF7ED43
S11312F0EF2EF6E0FF2EF02D20E030E045E550E043
S11313006DE870E08CE099E00E9461050E94B505EB
S1131310FFCFA1E21A2EAA1BBB1BFD010DC0AA1F01
S1131320BB1FEE1FFF1FA217B307E407F50720F04A
S1131330A21BB30BE40BF50B661F771F881F991FC5
S11313401A9469F760957095809590959B01AC010E
S1131350BD01CF010895EE0FFF1F0590F491E02D1C
S11313600994A29FB001B39FC001A39F700D811D7A
S11313701124911DB29F700D811D1124911D08959A
S1071380F894FFCF0B
S11313840349444C4500456D657267656E63792174
S11313940D004E6F20456D657267656E63790D00AF
S11313A46669727374007365636F6E64007468694C
S10713B4726400005B
S9030000FC
